{
  "_format": "hh-sol-artifact-1",
  "contractName": "TokenPurchase",
  "sourceName": "contracts/TokenPurchase.sol",
  "abi": [
    {
      "inputs": [
        {
          "internalType": "address",
          "name": "_usdt",
          "type": "address"
        }
      ],
      "stateMutability": "nonpayable",
      "type": "constructor"
    },
    {
      "anonymous": false,
      "inputs": [
        {
          "indexed": true,
          "internalType": "address",
          "name": "buyer",
          "type": "address"
        },
        {
          "indexed": false,
          "internalType": "uint256",
          "name": "usdtAmount",
          "type": "uint256"
        },
        {
          "indexed": false,
          "internalType": "uint256",
          "name": "tokenAmount",
          "type": "uint256"
        }
      ],
      "name": "Purchase",
      "type": "event"
    },
    {
      "inputs": [
        {
          "internalType": "uint256",
          "name": "usdtAmount",
          "type": "uint256"
        }
      ],
      "name": "buyTokens",
      "outputs": [],
      "stateMutability": "nonpayable",
      "type": "function"
    },
    {
      "inputs": [],
      "name": "owner",
      "outputs": [
        {
          "internalType": "address",
          "name": "",
          "type": "address"
        }
      ],
      "stateMutability": "view",
      "type": "function"
    },
    {
      "inputs": [
        {
          "internalType": "uint256",
          "name": "newPrice",
          "type": "uint256"
        }
      ],
      "name": "setTokenPrice",
      "outputs": [],
      "stateMutability": "nonpayable",
      "type": "function"
    },
    {
      "inputs": [],
      "name": "tokenPrice",
      "outputs": [
        {
          "internalType": "uint256",
          "name": "",
          "type": "uint256"
        }
      ],
      "stateMutability": "view",
      "type": "function"
    },
    {
      "inputs": [],
      "name": "usdt",
      "outputs": [
        {
          "internalType": "contract IERC20",
          "name": "",
          "type": "address"
        }
      ],
      "stateMutability": "view",
      "type": "function"
    },
    {
      "inputs": [],
      "name": "withdrawUSDT",
      "outputs": [],
      "stateMutability": "nonpayable",
      "type": "function"
    }
  ],
  "bytecode": "0x6080604052620f424060025534801561001757600080fd5b50604051610bfb380380610bfb83398181016040528101906100399190610123565b336000806101000a81548173ffffffffffffffffffffffffffffffffffffffff021916908373ffffffffffffffffffffffffffffffffffffffff16021790555080600160006101000a81548173ffffffffffffffffffffffffffffffffffffffff021916908373ffffffffffffffffffffffffffffffffffffffff16021790555050610150565b600080fd5b600073ffffffffffffffffffffffffffffffffffffffff82169050919050565b60006100f0826100c5565b9050919050565b610100816100e5565b811461010b57600080fd5b50565b60008151905061011d816100f7565b92915050565b600060208284031215610139576101386100c0565b5b60006101478482850161010e565b91505092915050565b610a9c8061015f6000396000f3fe608060405234801561001057600080fd5b50600436106100625760003560e01c80632f48ab7d146100675780633610724e14610085578063362e496b146100a15780636a61e5fc146100ab5780637ff9b596146100c75780638da5cb5b146100e5575b600080fd5b61006f610103565b60405161007c919061062c565b60405180910390f35b61009f600480360381019061009a9190610682565b610129565b005b6100a96102bb565b005b6100c560048036038101906100c09190610682565b6104eb565b005b6100cf610583565b6040516100dc91906106be565b60405180910390f35b6100ed610589565b6040516100fa91906106fa565b60405180910390f35b600160009054906101000a900473ffffffffffffffffffffffffffffffffffffffff1681565b60025481101561016e576040517f08c379a000000000000000000000000000000000000000000000000000000000815260040161016590610772565b60405180910390fd5b60006002548261017e91906107c1565b90506000600160009054906101000a900473ffffffffffffffffffffffffffffffffffffffff1673ffffffffffffffffffffffffffffffffffffffff166323b872dd3330866040518463ffffffff1660e01b81526004016101e1939291906107f2565b6020604051808303816000875af1158015610200573d6000803e3d6000fd5b505050506040513d601f19601f820116820180604052508101906102249190610861565b905080610266576040517f08c379a000000000000000000000000000000000000000000000000000000000815260040161025d906108da565b60405180910390fd5b3373ffffffffffffffffffffffffffffffffffffffff167f12cb4648cf3058b17ceeb33e579f8b0bc269fe0843f3900b8e24b6c54871703c84846040516102ae9291906108fa565b60405180910390a2505050565b60008054906101000a900473ffffffffffffffffffffffffffffffffffffffff1673ffffffffffffffffffffffffffffffffffffffff163373ffffffffffffffffffffffffffffffffffffffff1614610349576040517f08c379a00000000000000000000000000000000000000000000000000000000081526004016103409061096f565b60405180910390fd5b6000600160009054906101000a900473ffffffffffffffffffffffffffffffffffffffff1673ffffffffffffffffffffffffffffffffffffffff166370a08231306040518263ffffffff1660e01b81526004016103a691906106fa565b602060405180830381865afa1580156103c3573d6000803e3d6000fd5b505050506040513d601f19601f820116820180604052508101906103e791906109a4565b9050600160009054906101000a900473ffffffffffffffffffffffffffffffffffffffff1673ffffffffffffffffffffffffffffffffffffffff1663a9059cbb60008054906101000a900473ffffffffffffffffffffffffffffffffffffffff16836040518363ffffffff1660e01b81526004016104669291906109d1565b6020604051808303816000875af1158015610485573d6000803e3d6000fd5b505050506040513d601f19601f820116820180604052508101906104a99190610861565b6104e8576040517f08c379a00000000000000000000000000000000000000000000000000000000081526004016104df90610a46565b60405180910390fd5b50565b60008054906101000a900473ffffffffffffffffffffffffffffffffffffffff1673ffffffffffffffffffffffffffffffffffffffff163373ffffffffffffffffffffffffffffffffffffffff1614610579576040517f08c379a00000000000000000000000000000000000000000000000000000000081526004016105709061096f565b60405180910390fd5b8060028190555050565b60025481565b60008054906101000a900473ffffffffffffffffffffffffffffffffffffffff1681565b600073ffffffffffffffffffffffffffffffffffffffff82169050919050565b6000819050919050565b60006105f26105ed6105e8846105ad565b6105cd565b6105ad565b9050919050565b6000610604826105d7565b9050919050565b6000610616826105f9565b9050919050565b6106268161060b565b82525050565b6000602082019050610641600083018461061d565b92915050565b600080fd5b6000819050919050565b61065f8161064c565b811461066a57600080fd5b50565b60008135905061067c81610656565b92915050565b60006020828403121561069857610697610647565b5b60006106a68482850161066d565b91505092915050565b6106b88161064c565b82525050565b60006020820190506106d360008301846106af565b92915050565b60006106e4826105ad565b9050919050565b6106f4816106d9565b82525050565b600060208201905061070f60008301846106eb565b92915050565b600082825260208201905092915050565b7f546f6f206c6974746c652073656e740000000000000000000000000000000000600082015250565b600061075c600f83610715565b915061076782610726565b602082019050919050565b6000602082019050818103600083015261078b8161074f565b9050919050565b7f4e487b7100000000000000000000000000000000000000000000000000000000600052601260045260246000fd5b60006107cc8261064c565b91506107d78361064c565b9250826107e7576107e6610792565b5b828204905092915050565b600060608201905061080760008301866106eb565b61081460208301856106eb565b61082160408301846106af565b949350505050565b60008115159050919050565b61083e81610829565b811461084957600080fd5b50565b60008151905061085b81610835565b92915050565b60006020828403121561087757610876610647565b5b60006108858482850161084c565b91505092915050565b7f55534454207472616e73666572206661696c6564000000000000000000000000600082015250565b60006108c4601483610715565b91506108cf8261088e565b602082019050919050565b600060208201905081810360008301526108f3816108b7565b9050919050565b600060408201905061090f60008301856106af565b61091c60208301846106af565b9392505050565b7f4f6e6c79206f776e657200000000000000000000000000000000000000000000600082015250565b6000610959600a83610715565b915061096482610923565b602082019050919050565b600060208201905081810360008301526109888161094c565b9050919050565b60008151905061099e81610656565b92915050565b6000602082840312156109ba576109b9610647565b5b60006109c88482850161098f565b91505092915050565b60006040820190506109e660008301856106eb565b6109f360208301846106af565b9392505050565b7f5769746864726177206661696c65640000000000000000000000000000000000600082015250565b6000610a30600f83610715565b9150610a3b826109fa565b602082019050919050565b60006020820190508181036000830152610a5f81610a23565b905091905056fea2646970667358221220fd836c572bf10eb3ab2235d2bdb469a4bc02bca156af52f44f57b52ea3f8db6064736f6c634300081c0033",
  "linkReferences": {},
  "deployedLinkReferences": {}
}